{
  "_format": "hh-sol-artifact-1",
  "contractName": "BTQToken",
  "sourceName": "contracts/BTQToken.sol",
  "abi": [
    {
      "inputs": [],
      "stateMutability": "nonpayable",
      "type": "constructor"
    },
    {
      "inputs": [
        {
          "internalType": "address",
          "name": "spender",
          "type": "address"
        },
        {
          "internalType": "uint256",
          "name": "allowance",
          "type": "uint256"
        },
        {
          "internalType": "uint256",
          "name": "needed",
          "type": "uint256"
        }
      ],
      "name": "ERC20InsufficientAllowance",
      "type": "error"
    },
    {
      "inputs": [
        {
          "internalType": "address",
          "name": "sender",
          "type": "address"
        },
        {
          "internalType": "uint256",
          "name": "balance",
          "type": "uint256"
        },
        {
          "internalType": "uint256",
          "name": "needed",
          "type": "uint256"
        }
      ],
      "name": "ERC20InsufficientBalance",
      "type": "error"
    },
    {
      "inputs": [
        {
          "internalType": "address",
          "name": "approver",
          "type": "address"
        }
      ],
      "name": "ERC20InvalidApprover",
      "type": "error"
    },
    {
      "inputs": [
        {
          "internalType": "address",
          "name": "receiver",
          "type": "address"
        }
      ],
      "name": "ERC20InvalidReceiver",
      "type": "error"
    },
    {
      "inputs": [
        {
          "internalType": "address",
          "name": "sender",
          "type": "address"
        }
      ],
      "name": "ERC20InvalidSender",
      "type": "error"
    },
    {
      "inputs": [
        {
          "internalType": "address",
          "name": "spender",
          "type": "address"
        }
      ],
      "name": "ERC20InvalidSpender",
      "type": "error"
    },
    {
      "inputs": [
        {
          "internalType": "address",
          "name": "owner",
          "type": "address"
        }
      ],
      "name": "OwnableInvalidOwner",
      "type": "error"
    },
    {
      "inputs": [
        {
          "internalType": "address",
          "name": "account",
          "type": "address"
        }
      ],
      "name": "OwnableUnauthorizedAccount",
      "type": "error"
    },
    {
      "anonymous": false,
      "inputs": [
        {
          "indexed": true,
          "internalType": "address",
          "name": "owner",
          "type": "address"
        },
        {
          "indexed": true,
          "internalType": "address",
          "name": "spender",
          "type": "address"
        },
        {
          "indexed": false,
          "internalType": "uint256",
          "name": "value",
          "type": "uint256"
        }
      ],
      "name": "Approval",
      "type": "event"
    },
    {
      "anonymous": false,
      "inputs": [
        {
          "indexed": true,
          "internalType": "address",
          "name": "previousOwner",
          "type": "address"
        },
        {
          "indexed": true,
          "internalType": "address",
          "name": "newOwner",
          "type": "address"
        }
      ],
      "name": "OwnershipTransferred",
      "type": "event"
    },
    {
      "anonymous": false,
      "inputs": [
        {
          "indexed": false,
          "internalType": "uint256",
          "name": "newRate",
          "type": "uint256"
        }
      ],
      "name": "RateUpdated",
      "type": "event"
    },
    {
      "anonymous": false,
      "inputs": [
        {
          "indexed": true,
          "internalType": "address",
          "name": "buyer",
          "type": "address"
        },
        {
          "indexed": false,
          "internalType": "uint256",
          "name": "nativeAmount",
          "type": "uint256"
        },
        {
          "indexed": false,
          "internalType": "uint256",
          "name": "tokenAmount",
          "type": "uint256"
        }
      ],
      "name": "TokensPurchased",
      "type": "event"
    },
    {
      "anonymous": false,
      "inputs": [
        {
          "indexed": true,
          "internalType": "address",
          "name": "from",
          "type": "address"
        },
        {
          "indexed": true,
          "internalType": "address",
          "name": "to",
          "type": "address"
        },
        {
          "indexed": false,
          "internalType": "uint256",
          "name": "value",
          "type": "uint256"
        }
      ],
      "name": "Transfer",
      "type": "event"
    },
    {
      "inputs": [
        {
          "internalType": "address",
          "name": "owner",
          "type": "address"
        },
        {
          "internalType": "address",
          "name": "spender",
          "type": "address"
        }
      ],
      "name": "allowance",
      "outputs": [
        {
          "internalType": "uint256",
          "name": "",
          "type": "uint256"
        }
      ],
      "stateMutability": "view",
      "type": "function"
    },
    {
      "inputs": [
        {
          "internalType": "address",
          "name": "spender",
          "type": "address"
        },
        {
          "internalType": "uint256",
          "name": "value",
          "type": "uint256"
        }
      ],
      "name": "approve",
      "outputs": [
        {
          "internalType": "bool",
          "name": "",
          "type": "bool"
        }
      ],
      "stateMutability": "nonpayable",
      "type": "function"
    },
    {
      "inputs": [
        {
          "internalType": "address",
          "name": "account",
          "type": "address"
        }
      ],
      "name": "balanceOf",
      "outputs": [
        {
          "internalType": "uint256",
          "name": "",
          "type": "uint256"
        }
      ],
      "stateMutability": "view",
      "type": "function"
    },
    {
      "inputs": [
        {
          "internalType": "uint256",
          "name": "value",
          "type": "uint256"
        }
      ],
      "name": "burn",
      "outputs": [],
      "stateMutability": "nonpayable",
      "type": "function"
    },
    {
      "inputs": [
        {
          "internalType": "address",
          "name": "account",
          "type": "address"
        },
        {
          "internalType": "uint256",
          "name": "value",
          "type": "uint256"
        }
      ],
      "name": "burnFrom",
      "outputs": [],
      "stateMutability": "nonpayable",
      "type": "function"
    },
    {
      "inputs": [],
      "name": "buy",
      "outputs": [],
      "stateMutability": "payable",
      "type": "function"
    },
    {
      "inputs": [],
      "name": "decimals",
      "outputs": [
        {
          "internalType": "uint8",
          "name": "",
          "type": "uint8"
        }
      ],
      "stateMutability": "view",
      "type": "function"
    },
    {
      "inputs": [],
      "name": "name",
      "outputs": [
        {
          "internalType": "string",
          "name": "",
          "type": "string"
        }
      ],
      "stateMutability": "view",
      "type": "function"
    },
    {
      "inputs": [],
      "name": "owner",
      "outputs": [
        {
          "internalType": "address",
          "name": "",
          "type": "address"
        }
      ],
      "stateMutability": "view",
      "type": "function"
    },
    {
      "inputs": [],
      "name": "rate",
      "outputs": [
        {
          "internalType": "uint256",
          "name": "",
          "type": "uint256"
        }
      ],
      "stateMutability": "view",
      "type": "function"
    },
    {
      "inputs": [],
      "name": "renounceOwnership",
      "outputs": [],
      "stateMutability": "nonpayable",
      "type": "function"
    },
    {
      "inputs": [
        {
          "internalType": "uint256",
          "name": "_newRate",
          "type": "uint256"
        }
      ],
      "name": "setRate",
      "outputs": [],
      "stateMutability": "nonpayable",
      "type": "function"
    },
    {
      "inputs": [],
      "name": "symbol",
      "outputs": [
        {
          "internalType": "string",
          "name": "",
          "type": "string"
        }
      ],
      "stateMutability": "view",
      "type": "function"
    },
    {
      "inputs": [],
      "name": "totalSupply",
      "outputs": [
        {
          "internalType": "uint256",
          "name": "",
          "type": "uint256"
        }
      ],
      "stateMutability": "view",
      "type": "function"
    },
    {
      "inputs": [
        {
          "internalType": "address",
          "name": "to",
          "type": "address"
        },
        {
          "internalType": "uint256",
          "name": "value",
          "type": "uint256"
        }
      ],
      "name": "transfer",
      "outputs": [
        {
          "internalType": "bool",
          "name": "",
          "type": "bool"
        }
      ],
      "stateMutability": "nonpayable",
      "type": "function"
    },
    {
      "inputs": [
        {
          "internalType": "address",
          "name": "from",
          "type": "address"
        },
        {
          "internalType": "address",
          "name": "to",
          "type": "address"
        },
        {
          "internalType": "uint256",
          "name": "value",
          "type": "uint256"
        }
      ],
      "name": "transferFrom",
      "outputs": [
        {
          "internalType": "bool",
          "name": "",
          "type": "bool"
        }
      ],
      "stateMutability": "nonpayable",
      "type": "function"
    },
    {
      "inputs": [
        {
          "internalType": "address",
          "name": "newOwner",
          "type": "address"
        }
      ],
      "name": "transferOwnership",
      "outputs": [],
      "stateMutability": "nonpayable",
      "type": "function"
    },
    {
      "inputs": [],
      "name": "withdraw",
      "outputs": [],
      "stateMutability": "nonpayable",
      "type": "function"
    },
    {
      "stateMutability": "payable",
      "type": "receive"
    }
  ],
  "bytecode": "0x608060405266038d7ea4c680006006553480156200001c57600080fd5b50336040518060400160405280600781526020017f426174746c6551000000000000000000000000000000000000000000000000008152506040518060400160405280600381526020017f425451000000000000000000000000000000000000000000000000000000000081525081600390816200009b91906200047d565b508060049081620000ad91906200047d565b505050600073ffffffffffffffffffffffffffffffffffffffff168173ffffffffffffffffffffffffffffffffffffffff1603620001255760006040517f1e4fbdf70000000000000000000000000000000000000000000000000000000081526004016200011c9190620005a9565b60405180910390fd5b62000136816200013d60201b60201c565b50620005c6565b6000600560009054906101000a900473ffffffffffffffffffffffffffffffffffffffff16905081600560006101000a81548173ffffffffffffffffffffffffffffffffffffffff021916908373ffffffffffffffffffffffffffffffffffffffff1602179055508173ffffffffffffffffffffffffffffffffffffffff168173ffffffffffffffffffffffffffffffffffffffff167f8be0079c531659141344cd1fd0a4f28419497f9722a3daafe3b4186f6b6457e060405160405180910390a35050565b600081519050919050565b7f4e487b7100000000000000000000000000000000000000000000000000000000600052604160045260246000fd5b7f4e487b7100000000000000000000000000000000000000000000000000000000600052602260045260246000fd5b600060028204905060018216806200028557607f821691505b6020821081036200029b576200029a6200023d565b5b50919050565b60008190508160005260206000209050919050565b60006020601f8301049050919050565b600082821b905092915050565b600060088302620003057fffffffffffffffffffffffffffffffffffffffffffffffffffffffffffffffff82620002c6565b620003118683620002c6565b95508019841693508086168417925050509392505050565b6000819050919050565b6000819050919050565b60006200035e62000358620003528462000329565b62000333565b62000329565b9050919050565b6000819050919050565b6200037a836200033d565b62000392620003898262000365565b848454620002d3565b825550505050565b600090565b620003a96200039a565b620003b68184846200036f565b505050565b5b81811015620003de57620003d26000826200039f565b600181019050620003bc565b5050565b601f8211156200042d57620003f781620002a1565b6200040284620002b6565b8101602085101562000412578190505b6200042a6200042185620002b6565b830182620003bb565b50505b505050565b600082821c905092915050565b6000620004526000198460080262000432565b1980831691505092915050565b60006200046d83836200043f565b9150826002028217905092915050565b620004888262000203565b67ffffffffffffffff811115620004a457620004a36200020e565b5b620004b082546200026c565b620004bd828285620003e2565b600060209050601f831160018114620004f55760008415620004e0578287015190505b620004ec85826200045f565b8655506200055c565b601f1984166200050586620002a1565b60005b828110156200052f5784890151825560018201915060208501945060208101905062000508565b868310156200054f57848901516200054b601f8916826200043f565b8355505b6001600288020188555050505b505050505050565b600073ffffffffffffffffffffffffffffffffffffffff82169050919050565b6000620005918262000564565b9050919050565b620005a38162000584565b82525050565b6000602082019050620005c0600083018462000598565b92915050565b61193380620005d66000396000f3fe60806040526004361061010d5760003560e01c806370a082311161009557806395d89b411161006457806395d89b4114610350578063a6f2ae3a1461037b578063a9059cbb14610385578063dd62ed3e146103c2578063f2fde38b146103ff57610114565b806370a08231146102a8578063715018a6146102e557806379cc6790146102fc5780638da5cb5b1461032557610114565b80632c4e722e116100dc5780632c4e722e146101e9578063313ce5671461021457806334fcf4371461023f5780633ccfd60b1461026857806342966c681461027f57610114565b806306fdde0314610119578063095ea7b31461014457806318160ddd1461018157806323b872dd146101ac57610114565b3661011457005b600080fd5b34801561012557600080fd5b5061012e610428565b60405161013b9190611273565b60405180910390f35b34801561015057600080fd5b5061016b6004803603810190610166919061132e565b6104ba565b6040516101789190611389565b60405180910390f35b34801561018d57600080fd5b506101966104dd565b6040516101a391906113b3565b60405180910390f35b3480156101b857600080fd5b506101d360048036038101906101ce91906113ce565b6104e7565b6040516101e09190611389565b60405180910390f35b3480156101f557600080fd5b506101fe610516565b60405161020b91906113b3565b60405180910390f35b34801561022057600080fd5b5061022961051c565b604051610236919061143d565b60405180910390f35b34801561024b57600080fd5b5061026660048036038101906102619190611458565b610525565b005b34801561027457600080fd5b5061027d6105b1565b005b34801561028b57600080fd5b506102a660048036038101906102a19190611458565b61066f565b005b3480156102b457600080fd5b506102cf60048036038101906102ca9190611485565b610683565b6040516102dc91906113b3565b60405180910390f35b3480156102f157600080fd5b506102fa6106cb565b005b34801561030857600080fd5b50610323600480360381019061031e919061132e565b6106df565b005b34801561033157600080fd5b5061033a6106ff565b60405161034791906114c1565b60405180910390f35b34801561035c57600080fd5b50610365610729565b6040516103729190611273565b60405180910390f35b6103836107bb565b005b34801561039157600080fd5b506103ac60048036038101906103a7919061132e565b6108c3565b6040516103b99190611389565b60405180910390f35b3480156103ce57600080fd5b506103e960048036038101906103e491906114dc565b6108e6565b6040516103f691906113b3565b60405180910390f35b34801561040b57600080fd5b5061042660048036038101906104219190611485565b61096d565b005b6060600380546104379061154b565b80601f01602080910402602001604051908101604052809291908181526020018280546104639061154b565b80156104b05780601f10610485576101008083540402835291602001916104b0565b820191906000526020600020905b81548152906001019060200180831161049357829003601f168201915b5050505050905090565b6000806104c56109f3565b90506104d28185856109fb565b600191505092915050565b6000600254905090565b6000806104f26109f3565b90506104ff858285610a0d565b61050a858585610aa2565b60019150509392505050565b60065481565b60006012905090565b61052d610b96565b60008111610570576040517f08c379a0000000000000000000000000000000000000000000000000000000008152600401610567906115c8565b60405180910390fd5b806006819055507fe65c987b2e4668e09ba867026921588005b2b2063607a1e7e7d91683c8f91b7b816040516105a691906113b3565b60405180910390a150565b6105b9610b96565b60006105c36106ff565b73ffffffffffffffffffffffffffffffffffffffff16476040516105e690611619565b60006040518083038185875af1925050503d8060008114610623576040519150601f19603f3d011682016040523d82523d6000602084013e610628565b606091505b505090508061066c576040517f08c379a00000000000000000000000000000000000000000000000000000000081526004016106639061167a565b60405180910390fd5b50565b61068061067a6109f3565b82610c1d565b50565b60008060008373ffffffffffffffffffffffffffffffffffffffff1673ffffffffffffffffffffffffffffffffffffffff168152602001908152602001600020549050919050565b6106d3610b96565b6106dd6000610c9f565b565b6106f1826106eb6109f3565b83610a0d565b6106fb8282610c1d565b5050565b6000600560009054906101000a900473ffffffffffffffffffffffffffffffffffffffff16905090565b6060600480546107389061154b565b80601f01602080910402602001604051908101604052809291908181526020018280546107649061154b565b80156107b15780601f10610786576101008083540402835291602001916107b1565b820191906000526020600020905b81548152906001019060200180831161079457829003601f168201915b5050505050905090565b600034116107fe576040517f08c379a00000000000000000000000000000000000000000000000000000000081526004016107f5906116e6565b60405180910390fd5b6000600654670de0b6b3a7640000346108179190611735565b61082191906117a6565b905060008111610866576040517f08c379a000000000000000000000000000000000000000000000000000000000815260040161085d90611849565b60405180910390fd5b6108703382610d65565b3373ffffffffffffffffffffffffffffffffffffffff167f8fafebcaf9d154343dad25669bfa277f4fbacd7ac6b0c4fed522580e040a0f3334836040516108b8929190611869565b60405180910390a250565b6000806108ce6109f3565b90506108db818585610aa2565b600191505092915050565b6000600160008473ffffffffffffffffffffffffffffffffffffffff1673ffffffffffffffffffffffffffffffffffffffff16815260200190815260200160002060008373ffffffffffffffffffffffffffffffffffffffff1673ffffffffffffffffffffffffffffffffffffffff16815260200190815260200160002054905092915050565b610975610b96565b600073ffffffffffffffffffffffffffffffffffffffff168173ffffffffffffffffffffffffffffffffffffffff16036109e75760006040517f1e4fbdf70000000000000000000000000000000000000000000000000000000081526004016109de91906114c1565b60405180910390fd5b6109f081610c9f565b50565b600033905090565b610a088383836001610de7565b505050565b6000610a1984846108e6565b90507fffffffffffffffffffffffffffffffffffffffffffffffffffffffffffffffff811015610a9c5781811015610a8c578281836040517ffb8f41b2000000000000000000000000000000000000000000000000000000008152600401610a8393929190611892565b60405180910390fd5b610a9b84848484036000610de7565b5b50505050565b600073ffffffffffffffffffffffffffffffffffffffff168373ffffffffffffffffffffffffffffffffffffffff1603610b145760006040517f96c6fd1e000000000000000000000000000000000000000000000000000000008152600401610b0b91906114c1565b60405180910390fd5b600073ffffffffffffffffffffffffffffffffffffffff168273ffffffffffffffffffffffffffffffffffffffff1603610b865760006040517fec442f05000000000000000000000000000000000000000000000000000000008152600401610b7d91906114c1565b60405180910390fd5b610b91838383610fbe565b505050565b610b9e6109f3565b73ffffffffffffffffffffffffffffffffffffffff16610bbc6106ff565b73ffffffffffffffffffffffffffffffffffffffff1614610c1b57610bdf6109f3565b6040517f118cdaa7000000000000000000000000000000000000000000000000000000008152600401610c1291906114c1565b60405180910390fd5b565b600073ffffffffffffffffffffffffffffffffffffffff168273ffffffffffffffffffffffffffffffffffffffff1603610c8f5760006040517f96c6fd1e000000000000000000000000000000000000000000000000000000008152600401610c8691906114c1565b60405180910390fd5b610c9b82600083610fbe565b5050565b6000600560009054906101000a900473ffffffffffffffffffffffffffffffffffffffff16905081600560006101000a81548173ffffffffffffffffffffffffffffffffffffffff021916908373ffffffffffffffffffffffffffffffffffffffff1602179055508173ffffffffffffffffffffffffffffffffffffffff168173ffffffffffffffffffffffffffffffffffffffff167f8be0079c531659141344cd1fd0a4f28419497f9722a3daafe3b4186f6b6457e060405160405180910390a35050565b600073ffffffffffffffffffffffffffffffffffffffff168273ffffffffffffffffffffffffffffffffffffffff1603610dd75760006040517fec442f05000000000000000000000000000000000000000000000000000000008152600401610dce91906114c1565b60405180910390fd5b610de360008383610fbe565b5050565b600073ffffffffffffffffffffffffffffffffffffffff168473ffffffffffffffffffffffffffffffffffffffff1603610e595760006040517fe602df05000000000000000000000000000000000000000000000000000000008152600401610e5091906114c1565b60405180910390fd5b600073ffffffffffffffffffffffffffffffffffffffff168373ffffffffffffffffffffffffffffffffffffffff1603610ecb5760006040517f94280d62000000000000000000000000000000000000000000000000000000008152600401610ec291906114c1565b60405180910390fd5b81600160008673ffffffffffffffffffffffffffffffffffffffff1673ffffffffffffffffffffffffffffffffffffffff16815260200190815260200160002060008573ffffffffffffffffffffffffffffffffffffffff1673ffffffffffffffffffffffffffffffffffffffff168152602001908152602001600020819055508015610fb8578273ffffffffffffffffffffffffffffffffffffffff168473ffffffffffffffffffffffffffffffffffffffff167f8c5be1e5ebec7d5bd14f71427d1e84f3dd0314c0f7b2291e5b200ac8c7c3b92584604051610faf91906113b3565b60405180910390a35b50505050565b600073ffffffffffffffffffffffffffffffffffffffff168373ffffffffffffffffffffffffffffffffffffffff160361101057806002600082825461100491906118c9565b925050819055506110e3565b60008060008573ffffffffffffffffffffffffffffffffffffffff1673ffffffffffffffffffffffffffffffffffffffff1681526020019081526020016000205490508181101561109c578381836040517fe450d38c00000000000000000000000000000000000000000000000000000000815260040161109393929190611892565b60405180910390fd5b8181036000808673ffffffffffffffffffffffffffffffffffffffff1673ffffffffffffffffffffffffffffffffffffffff16815260200190815260200160002081905550505b600073ffffffffffffffffffffffffffffffffffffffff168273ffffffffffffffffffffffffffffffffffffffff160361112c5780600260008282540392505081905550611179565b806000808473ffffffffffffffffffffffffffffffffffffffff1673ffffffffffffffffffffffffffffffffffffffff168152602001908152602001600020600082825401925050819055505b8173ffffffffffffffffffffffffffffffffffffffff168373ffffffffffffffffffffffffffffffffffffffff167fddf252ad1be2c89b69c2b068fc378daa952ba7f163c4a11628f55a4df523b3ef836040516111d691906113b3565b60405180910390a3505050565b600081519050919050565b600082825260208201905092915050565b60005b8381101561121d578082015181840152602081019050611202565b60008484015250505050565b6000601f19601f8301169050919050565b6000611245826111e3565b61124f81856111ee565b935061125f8185602086016111ff565b61126881611229565b840191505092915050565b6000602082019050818103600083015261128d818461123a565b905092915050565b600080fd5b600073ffffffffffffffffffffffffffffffffffffffff82169050919050565b60006112c58261129a565b9050919050565b6112d5816112ba565b81146112e057600080fd5b50565b6000813590506112f2816112cc565b92915050565b6000819050919050565b61130b816112f8565b811461131657600080fd5b50565b60008135905061132881611302565b92915050565b6000806040838503121561134557611344611295565b5b6000611353858286016112e3565b925050602061136485828601611319565b9150509250929050565b60008115159050919050565b6113838161136e565b82525050565b600060208201905061139e600083018461137a565b92915050565b6113ad816112f8565b82525050565b60006020820190506113c860008301846113a4565b92915050565b6000806000606084860312156113e7576113e6611295565b5b60006113f5868287016112e3565b9350506020611406868287016112e3565b925050604061141786828701611319565b9150509250925092565b600060ff82169050919050565b61143781611421565b82525050565b6000602082019050611452600083018461142e565b92915050565b60006020828403121561146e5761146d611295565b5b600061147c84828501611319565b91505092915050565b60006020828403121561149b5761149a611295565b5b60006114a9848285016112e3565b91505092915050565b6114bb816112ba565b82525050565b60006020820190506114d660008301846114b2565b92915050565b600080604083850312156114f3576114f2611295565b5b6000611501858286016112e3565b9250506020611512858286016112e3565b9150509250929050565b7f4e487b7100000000000000000000000000000000000000000000000000000000600052602260045260246000fd5b6000600282049050600182168061156357607f821691505b6020821081036115765761157561151c565b5b50919050565b7f52617465206d757374206265203e203000000000000000000000000000000000600082015250565b60006115b26010836111ee565b91506115bd8261157c565b602082019050919050565b600060208201905081810360008301526115e1816115a5565b9050919050565b600081905092915050565b50565b60006116036000836115e8565b915061160e826115f3565b600082019050919050565b6000611624826115f6565b9150819050919050565b7f5769746864726177616c206661696c6564000000000000000000000000000000600082015250565b60006116646011836111ee565b915061166f8261162e565b602082019050919050565b6000602082019050818103600083015261169381611657565b9050919050565b7f4d7573742073656e64206e61746976652063757272656e637900000000000000600082015250565b60006116d06019836111ee565b91506116db8261169a565b602082019050919050565b600060208201905081810360008301526116ff816116c3565b9050919050565b7f4e487b7100000000000000000000000000000000000000000000000000000000600052601160045260246000fd5b6000611740826112f8565b915061174b836112f8565b9250828202611759816112f8565b915082820484148315176117705761176f611706565b5b5092915050565b7f4e487b7100000000000000000000000000000000000000000000000000000000600052601260045260246000fd5b60006117b1826112f8565b91506117bc836112f8565b9250826117cc576117cb611777565b5b828204905092915050565b7f496e73756666696369656e742066756e647320746f20627579206174206c656160008201527f7374203120425451000000000000000000000000000000000000000000000000602082015250565b60006118336028836111ee565b915061183e826117d7565b604082019050919050565b6000602082019050818103600083015261186281611826565b9050919050565b600060408201905061187e60008301856113a4565b61188b60208301846113a4565b9392505050565b60006060820190506118a760008301866114b2565b6118b460208301856113a4565b6118c160408301846113a4565b949350505050565b60006118d4826112f8565b91506118df836112f8565b92508282019050808211156118f7576118f6611706565b5b9291505056fea26469706673582212201c378426f8f63772e5971814a8c45e9ac6f7b43ffc654b49f95f486495b4b2d364736f6c63430008140033",
  "linkReferences": {},
  "deployedLinkReferences": {}
}