{
  "_format": "hh-sol-artifact-1",
  "contractName": "BTQToken",
  "sourceName": "contracts/BTQToken.sol",
  "abi": [
    {
      "inputs": [],
      "stateMutability": "nonpayable",
      "type": "constructor"
    },
    {
      "inputs": [
        {
          "internalType": "address",
          "name": "spender",
          "type": "address"
        },
        {
          "internalType": "uint256",
          "name": "allowance",
          "type": "uint256"
        },
        {
          "internalType": "uint256",
          "name": "needed",
          "type": "uint256"
        }
      ],
      "name": "ERC20InsufficientAllowance",
      "type": "error"
    },
    {
      "inputs": [
        {
          "internalType": "address",
          "name": "sender",
          "type": "address"
        },
        {
          "internalType": "uint256",
          "name": "balance",
          "type": "uint256"
        },
        {
          "internalType": "uint256",
          "name": "needed",
          "type": "uint256"
        }
      ],
      "name": "ERC20InsufficientBalance",
      "type": "error"
    },
    {
      "inputs": [
        {
          "internalType": "address",
          "name": "approver",
          "type": "address"
        }
      ],
      "name": "ERC20InvalidApprover",
      "type": "error"
    },
    {
      "inputs": [
        {
          "internalType": "address",
          "name": "receiver",
          "type": "address"
        }
      ],
      "name": "ERC20InvalidReceiver",
      "type": "error"
    },
    {
      "inputs": [
        {
          "internalType": "address",
          "name": "sender",
          "type": "address"
        }
      ],
      "name": "ERC20InvalidSender",
      "type": "error"
    },
    {
      "inputs": [
        {
          "internalType": "address",
          "name": "spender",
          "type": "address"
        }
      ],
      "name": "ERC20InvalidSpender",
      "type": "error"
    },
    {
      "inputs": [
        {
          "internalType": "address",
          "name": "owner",
          "type": "address"
        }
      ],
      "name": "OwnableInvalidOwner",
      "type": "error"
    },
    {
      "inputs": [
        {
          "internalType": "address",
          "name": "account",
          "type": "address"
        }
      ],
      "name": "OwnableUnauthorizedAccount",
      "type": "error"
    },
    {
      "anonymous": false,
      "inputs": [
        {
          "indexed": true,
          "internalType": "address",
          "name": "owner",
          "type": "address"
        },
        {
          "indexed": true,
          "internalType": "address",
          "name": "spender",
          "type": "address"
        },
        {
          "indexed": false,
          "internalType": "uint256",
          "name": "value",
          "type": "uint256"
        }
      ],
      "name": "Approval",
      "type": "event"
    },
    {
      "anonymous": false,
      "inputs": [
        {
          "indexed": true,
          "internalType": "address",
          "name": "previousOwner",
          "type": "address"
        },
        {
          "indexed": true,
          "internalType": "address",
          "name": "newOwner",
          "type": "address"
        }
      ],
      "name": "OwnershipTransferred",
      "type": "event"
    },
    {
      "anonymous": false,
      "inputs": [
        {
          "indexed": false,
          "internalType": "uint256",
          "name": "newRate",
          "type": "uint256"
        }
      ],
      "name": "RateUpdated",
      "type": "event"
    },
    {
      "anonymous": false,
      "inputs": [
        {
          "indexed": true,
          "internalType": "address",
          "name": "buyer",
          "type": "address"
        },
        {
          "indexed": false,
          "internalType": "uint256",
          "name": "nativeAmount",
          "type": "uint256"
        },
        {
          "indexed": false,
          "internalType": "uint256",
          "name": "tokenAmount",
          "type": "uint256"
        }
      ],
      "name": "TokensPurchased",
      "type": "event"
    },
    {
      "anonymous": false,
      "inputs": [
        {
          "indexed": true,
          "internalType": "address",
          "name": "seller",
          "type": "address"
        },
        {
          "indexed": false,
          "internalType": "uint256",
          "name": "tokenAmount",
          "type": "uint256"
        },
        {
          "indexed": false,
          "internalType": "uint256",
          "name": "nativeAmount",
          "type": "uint256"
        }
      ],
      "name": "TokensSold",
      "type": "event"
    },
    {
      "anonymous": false,
      "inputs": [
        {
          "indexed": true,
          "internalType": "address",
          "name": "from",
          "type": "address"
        },
        {
          "indexed": true,
          "internalType": "address",
          "name": "to",
          "type": "address"
        },
        {
          "indexed": false,
          "internalType": "uint256",
          "name": "value",
          "type": "uint256"
        }
      ],
      "name": "Transfer",
      "type": "event"
    },
    {
      "inputs": [
        {
          "internalType": "address",
          "name": "owner",
          "type": "address"
        },
        {
          "internalType": "address",
          "name": "spender",
          "type": "address"
        }
      ],
      "name": "allowance",
      "outputs": [
        {
          "internalType": "uint256",
          "name": "",
          "type": "uint256"
        }
      ],
      "stateMutability": "view",
      "type": "function"
    },
    {
      "inputs": [
        {
          "internalType": "address",
          "name": "spender",
          "type": "address"
        },
        {
          "internalType": "uint256",
          "name": "value",
          "type": "uint256"
        }
      ],
      "name": "approve",
      "outputs": [
        {
          "internalType": "bool",
          "name": "",
          "type": "bool"
        }
      ],
      "stateMutability": "nonpayable",
      "type": "function"
    },
    {
      "inputs": [
        {
          "internalType": "address",
          "name": "account",
          "type": "address"
        }
      ],
      "name": "balanceOf",
      "outputs": [
        {
          "internalType": "uint256",
          "name": "",
          "type": "uint256"
        }
      ],
      "stateMutability": "view",
      "type": "function"
    },
    {
      "inputs": [
        {
          "internalType": "uint256",
          "name": "value",
          "type": "uint256"
        }
      ],
      "name": "burn",
      "outputs": [],
      "stateMutability": "nonpayable",
      "type": "function"
    },
    {
      "inputs": [
        {
          "internalType": "address",
          "name": "account",
          "type": "address"
        },
        {
          "internalType": "uint256",
          "name": "value",
          "type": "uint256"
        }
      ],
      "name": "burnFrom",
      "outputs": [],
      "stateMutability": "nonpayable",
      "type": "function"
    },
    {
      "inputs": [],
      "name": "buy",
      "outputs": [],
      "stateMutability": "payable",
      "type": "function"
    },
    {
      "inputs": [],
      "name": "decimals",
      "outputs": [
        {
          "internalType": "uint8",
          "name": "",
          "type": "uint8"
        }
      ],
      "stateMutability": "view",
      "type": "function"
    },
    {
      "inputs": [],
      "name": "name",
      "outputs": [
        {
          "internalType": "string",
          "name": "",
          "type": "string"
        }
      ],
      "stateMutability": "view",
      "type": "function"
    },
    {
      "inputs": [],
      "name": "owner",
      "outputs": [
        {
          "internalType": "address",
          "name": "",
          "type": "address"
        }
      ],
      "stateMutability": "view",
      "type": "function"
    },
    {
      "inputs": [],
      "name": "rate",
      "outputs": [
        {
          "internalType": "uint256",
          "name": "",
          "type": "uint256"
        }
      ],
      "stateMutability": "view",
      "type": "function"
    },
    {
      "inputs": [
        {
          "internalType": "uint256",
          "name": "rewardAmount",
          "type": "uint256"
        }
      ],
      "name": "recordGameWin",
      "outputs": [],
      "stateMutability": "nonpayable",
      "type": "function"
    },
    {
      "inputs": [],
      "name": "renounceOwnership",
      "outputs": [],
      "stateMutability": "nonpayable",
      "type": "function"
    },
    {
      "inputs": [
        {
          "internalType": "uint256",
          "name": "btqAmount",
          "type": "uint256"
        }
      ],
      "name": "sell",
      "outputs": [],
      "stateMutability": "nonpayable",
      "type": "function"
    },
    {
      "inputs": [
        {
          "internalType": "uint256",
          "name": "_newRate",
          "type": "uint256"
        }
      ],
      "name": "setRate",
      "outputs": [],
      "stateMutability": "nonpayable",
      "type": "function"
    },
    {
      "inputs": [],
      "name": "symbol",
      "outputs": [
        {
          "internalType": "string",
          "name": "",
          "type": "string"
        }
      ],
      "stateMutability": "view",
      "type": "function"
    },
    {
      "inputs": [],
      "name": "totalSupply",
      "outputs": [
        {
          "internalType": "uint256",
          "name": "",
          "type": "uint256"
        }
      ],
      "stateMutability": "view",
      "type": "function"
    },
    {
      "inputs": [
        {
          "internalType": "address",
          "name": "to",
          "type": "address"
        },
        {
          "internalType": "uint256",
          "name": "value",
          "type": "uint256"
        }
      ],
      "name": "transfer",
      "outputs": [
        {
          "internalType": "bool",
          "name": "",
          "type": "bool"
        }
      ],
      "stateMutability": "nonpayable",
      "type": "function"
    },
    {
      "inputs": [
        {
          "internalType": "address",
          "name": "from",
          "type": "address"
        },
        {
          "internalType": "address",
          "name": "to",
          "type": "address"
        },
        {
          "internalType": "uint256",
          "name": "value",
          "type": "uint256"
        }
      ],
      "name": "transferFrom",
      "outputs": [
        {
          "internalType": "bool",
          "name": "",
          "type": "bool"
        }
      ],
      "stateMutability": "nonpayable",
      "type": "function"
    },
    {
      "inputs": [
        {
          "internalType": "address",
          "name": "newOwner",
          "type": "address"
        }
      ],
      "name": "transferOwnership",
      "outputs": [],
      "stateMutability": "nonpayable",
      "type": "function"
    },
    {
      "inputs": [],
      "name": "withdraw",
      "outputs": [],
      "stateMutability": "nonpayable",
      "type": "function"
    },
    {
      "stateMutability": "payable",
      "type": "receive"
    }
  ],
  "bytecode": "0x608060405266038d7ea4c680006006553480156200001c57600080fd5b50336040518060400160405280600781526020017f426174746c6551000000000000000000000000000000000000000000000000008152506040518060400160405280600381526020017f425451000000000000000000000000000000000000000000000000000000000081525081600390816200009b91906200047d565b508060049081620000ad91906200047d565b505050600073ffffffffffffffffffffffffffffffffffffffff168173ffffffffffffffffffffffffffffffffffffffff1603620001255760006040517f1e4fbdf70000000000000000000000000000000000000000000000000000000081526004016200011c9190620005a9565b60405180910390fd5b62000136816200013d60201b60201c565b50620005c6565b6000600560009054906101000a900473ffffffffffffffffffffffffffffffffffffffff16905081600560006101000a81548173ffffffffffffffffffffffffffffffffffffffff021916908373ffffffffffffffffffffffffffffffffffffffff1602179055508173ffffffffffffffffffffffffffffffffffffffff168173ffffffffffffffffffffffffffffffffffffffff167f8be0079c531659141344cd1fd0a4f28419497f9722a3daafe3b4186f6b6457e060405160405180910390a35050565b600081519050919050565b7f4e487b7100000000000000000000000000000000000000000000000000000000600052604160045260246000fd5b7f4e487b7100000000000000000000000000000000000000000000000000000000600052602260045260246000fd5b600060028204905060018216806200028557607f821691505b6020821081036200029b576200029a6200023d565b5b50919050565b60008190508160005260206000209050919050565b60006020601f8301049050919050565b600082821b905092915050565b600060088302620003057fffffffffffffffffffffffffffffffffffffffffffffffffffffffffffffffff82620002c6565b620003118683620002c6565b95508019841693508086168417925050509392505050565b6000819050919050565b6000819050919050565b60006200035e62000358620003528462000329565b62000333565b62000329565b9050919050565b6000819050919050565b6200037a836200033d565b62000392620003898262000365565b848454620002d3565b825550505050565b600090565b620003a96200039a565b620003b68184846200036f565b505050565b5b81811015620003de57620003d26000826200039f565b600181019050620003bc565b5050565b601f8211156200042d57620003f781620002a1565b6200040284620002b6565b8101602085101562000412578190505b6200042a6200042185620002b6565b830182620003bb565b50505b505050565b600082821c905092915050565b6000620004526000198460080262000432565b1980831691505092915050565b60006200046d83836200043f565b9150826002028217905092915050565b620004888262000203565b67ffffffffffffffff811115620004a457620004a36200020e565b5b620004b082546200026c565b620004bd828285620003e2565b600060209050601f831160018114620004f55760008415620004e0578287015190505b620004ec85826200045f565b8655506200055c565b601f1984166200050586620002a1565b60005b828110156200052f5784890151825560018201915060208501945060208101905062000508565b868310156200054f57848901516200054b601f8916826200043f565b8355505b6001600288020188555050505b505050505050565b600073ffffffffffffffffffffffffffffffffffffffff82169050919050565b6000620005918262000564565b9050919050565b620005a38162000584565b82525050565b6000602082019050620005c0600083018462000598565b92915050565b611e2e80620005d66000396000f3fe6080604052600436106101235760003560e01c806370a08231116100a0578063a6f2ae3a11610064578063a6f2ae3a146103ba578063a9059cbb146103c4578063dd62ed3e14610401578063e4849b321461043e578063f2fde38b146104675761012a565b806370a08231146102e7578063715018a61461032457806379cc67901461033b5780638da5cb5b1461036457806395d89b411461038f5761012a565b806330d72d4d116100e757806330d72d4d1461022a578063313ce5671461025357806334fcf4371461027e5780633ccfd60b146102a757806342966c68146102be5761012a565b806306fdde031461012f578063095ea7b31461015a57806318160ddd1461019757806323b872dd146101c25780632c4e722e146101ff5761012a565b3661012a57005b600080fd5b34801561013b57600080fd5b50610144610490565b604051610151919061152c565b60405180910390f35b34801561016657600080fd5b50610181600480360381019061017c91906115e7565b610522565b60405161018e9190611642565b60405180910390f35b3480156101a357600080fd5b506101ac610545565b6040516101b9919061166c565b60405180910390f35b3480156101ce57600080fd5b506101e960048036038101906101e49190611687565b61054f565b6040516101f69190611642565b60405180910390f35b34801561020b57600080fd5b5061021461057e565b604051610221919061166c565b60405180910390f35b34801561023657600080fd5b50610251600480360381019061024c91906116da565b610584565b005b34801561025f57600080fd5b506102686105d4565b6040516102759190611723565b60405180910390f35b34801561028a57600080fd5b506102a560048036038101906102a091906116da565b6105dd565b005b3480156102b357600080fd5b506102bc610669565b005b3480156102ca57600080fd5b506102e560048036038101906102e091906116da565b610727565b005b3480156102f357600080fd5b5061030e6004803603810190610309919061173e565b61073b565b60405161031b919061166c565b60405180910390f35b34801561033057600080fd5b50610339610783565b005b34801561034757600080fd5b50610362600480360381019061035d91906115e7565b610797565b005b34801561037057600080fd5b506103796107b7565b604051610386919061177a565b60405180910390f35b34801561039b57600080fd5b506103a46107e1565b6040516103b1919061152c565b60405180910390f35b6103c2610873565b005b3480156103d057600080fd5b506103eb60048036038101906103e691906115e7565b61097b565b6040516103f89190611642565b60405180910390f35b34801561040d57600080fd5b5061042860048036038101906104239190611795565b61099e565b604051610435919061166c565b60405180910390f35b34801561044a57600080fd5b50610465600480360381019061046091906116da565b610a25565b005b34801561047357600080fd5b5061048e6004803603810190610489919061173e565b610c26565b005b60606003805461049f90611804565b80601f01602080910402602001604051908101604052809291908181526020018280546104cb90611804565b80156105185780601f106104ed57610100808354040283529160200191610518565b820191906000526020600020905b8154815290600101906020018083116104fb57829003601f168201915b5050505050905090565b60008061052d610cac565b905061053a818585610cb4565b600191505092915050565b6000600254905090565b60008061055a610cac565b9050610567858285610cc6565b610572858585610d5b565b60019150509392505050565b60065481565b600081116105c7576040517f08c379a00000000000000000000000000000000000000000000000000000000081526004016105be90611881565b60405180910390fd5b6105d13382610e4f565b50565b60006012905090565b6105e5610ed1565b60008111610628576040517f08c379a000000000000000000000000000000000000000000000000000000000815260040161061f906118ed565b60405180910390fd5b806006819055507fe65c987b2e4668e09ba867026921588005b2b2063607a1e7e7d91683c8f91b7b8160405161065e919061166c565b60405180910390a150565b610671610ed1565b600061067b6107b7565b73ffffffffffffffffffffffffffffffffffffffff164760405161069e9061193e565b60006040518083038185875af1925050503d80600081146106db576040519150601f19603f3d011682016040523d82523d6000602084013e6106e0565b606091505b5050905080610724576040517f08c379a000000000000000000000000000000000000000000000000000000000815260040161071b9061199f565b60405180910390fd5b50565b610738610732610cac565b82610f58565b50565b60008060008373ffffffffffffffffffffffffffffffffffffffff1673ffffffffffffffffffffffffffffffffffffffff168152602001908152602001600020549050919050565b61078b610ed1565b6107956000610fda565b565b6107a9826107a3610cac565b83610cc6565b6107b38282610f58565b5050565b6000600560009054906101000a900473ffffffffffffffffffffffffffffffffffffffff16905090565b6060600480546107f090611804565b80601f016020809104026020016040519081016040528092919081815260200182805461081c90611804565b80156108695780601f1061083e57610100808354040283529160200191610869565b820191906000526020600020905b81548152906001019060200180831161084c57829003601f168201915b5050505050905090565b600034116108b6576040517f08c379a00000000000000000000000000000000000000000000000000000000081526004016108ad90611a0b565b60405180910390fd5b6000600654670de0b6b3a7640000346108cf9190611a5a565b6108d99190611acb565b90506000811161091e576040517f08c379a000000000000000000000000000000000000000000000000000000000815260040161091590611b6e565b60405180910390fd5b6109283382610e4f565b3373ffffffffffffffffffffffffffffffffffffffff167f8fafebcaf9d154343dad25669bfa277f4fbacd7ac6b0c4fed522580e040a0f333483604051610970929190611b8e565b60405180910390a250565b600080610986610cac565b9050610993818585610d5b565b600191505092915050565b6000600160008473ffffffffffffffffffffffffffffffffffffffff1673ffffffffffffffffffffffffffffffffffffffff16815260200190815260200160002060008373ffffffffffffffffffffffffffffffffffffffff1673ffffffffffffffffffffffffffffffffffffffff16815260200190815260200160002054905092915050565b60008111610a68576040517f08c379a0000000000000000000000000000000000000000000000000000000008152600401610a5f90611c03565b60405180910390fd5b80610a723361073b565b1015610ab3576040517f08c379a0000000000000000000000000000000000000000000000000000000008152600401610aaa90611c6f565b60405180910390fd5b6000670de0b6b3a764000060065483610acc9190611a5a565b610ad69190611acb565b905080471015610b1b576040517f08c379a0000000000000000000000000000000000000000000000000000000008152600401610b1290611d01565b60405180910390fd5b610b253383610f58565b60003373ffffffffffffffffffffffffffffffffffffffff1682604051610b4b9061193e565b60006040518083038185875af1925050503d8060008114610b88576040519150601f19603f3d011682016040523d82523d6000602084013e610b8d565b606091505b5050905080610bd1576040517f08c379a0000000000000000000000000000000000000000000000000000000008152600401610bc890611d6d565b60405180910390fd5b3373ffffffffffffffffffffffffffffffffffffffff167f2dcf9433d75db0d8b1c172641f85e319ffe4ad22e108a95d1847ceb906e5195d8484604051610c19929190611b8e565b60405180910390a2505050565b610c2e610ed1565b600073ffffffffffffffffffffffffffffffffffffffff168173ffffffffffffffffffffffffffffffffffffffff1603610ca05760006040517f1e4fbdf7000000000000000000000000000000000000000000000000000000008152600401610c97919061177a565b60405180910390fd5b610ca981610fda565b50565b600033905090565b610cc183838360016110a0565b505050565b6000610cd2848461099e565b90507fffffffffffffffffffffffffffffffffffffffffffffffffffffffffffffffff811015610d555781811015610d45578281836040517ffb8f41b2000000000000000000000000000000000000000000000000000000008152600401610d3c93929190611d8d565b60405180910390fd5b610d54848484840360006110a0565b5b50505050565b600073ffffffffffffffffffffffffffffffffffffffff168373ffffffffffffffffffffffffffffffffffffffff1603610dcd5760006040517f96c6fd1e000000000000000000000000000000000000000000000000000000008152600401610dc4919061177a565b60405180910390fd5b600073ffffffffffffffffffffffffffffffffffffffff168273ffffffffffffffffffffffffffffffffffffffff1603610e3f5760006040517fec442f05000000000000000000000000000000000000000000000000000000008152600401610e36919061177a565b60405180910390fd5b610e4a838383611277565b505050565b600073ffffffffffffffffffffffffffffffffffffffff168273ffffffffffffffffffffffffffffffffffffffff1603610ec15760006040517fec442f05000000000000000000000000000000000000000000000000000000008152600401610eb8919061177a565b60405180910390fd5b610ecd60008383611277565b5050565b610ed9610cac565b73ffffffffffffffffffffffffffffffffffffffff16610ef76107b7565b73ffffffffffffffffffffffffffffffffffffffff1614610f5657610f1a610cac565b6040517f118cdaa7000000000000000000000000000000000000000000000000000000008152600401610f4d919061177a565b60405180910390fd5b565b600073ffffffffffffffffffffffffffffffffffffffff168273ffffffffffffffffffffffffffffffffffffffff1603610fca5760006040517f96c6fd1e000000000000000000000000000000000000000000000000000000008152600401610fc1919061177a565b60405180910390fd5b610fd682600083611277565b5050565b6000600560009054906101000a900473ffffffffffffffffffffffffffffffffffffffff16905081600560006101000a81548173ffffffffffffffffffffffffffffffffffffffff021916908373ffffffffffffffffffffffffffffffffffffffff1602179055508173ffffffffffffffffffffffffffffffffffffffff168173ffffffffffffffffffffffffffffffffffffffff167f8be0079c531659141344cd1fd0a4f28419497f9722a3daafe3b4186f6b6457e060405160405180910390a35050565b600073ffffffffffffffffffffffffffffffffffffffff168473ffffffffffffffffffffffffffffffffffffffff16036111125760006040517fe602df05000000000000000000000000000000000000000000000000000000008152600401611109919061177a565b60405180910390fd5b600073ffffffffffffffffffffffffffffffffffffffff168373ffffffffffffffffffffffffffffffffffffffff16036111845760006040517f94280d6200000000000000000000000000000000000000000000000000000000815260040161117b919061177a565b60405180910390fd5b81600160008673ffffffffffffffffffffffffffffffffffffffff1673ffffffffffffffffffffffffffffffffffffffff16815260200190815260200160002060008573ffffffffffffffffffffffffffffffffffffffff1673ffffffffffffffffffffffffffffffffffffffff168152602001908152602001600020819055508015611271578273ffffffffffffffffffffffffffffffffffffffff168473ffffffffffffffffffffffffffffffffffffffff167f8c5be1e5ebec7d5bd14f71427d1e84f3dd0314c0f7b2291e5b200ac8c7c3b92584604051611268919061166c565b60405180910390a35b50505050565b600073ffffffffffffffffffffffffffffffffffffffff168373ffffffffffffffffffffffffffffffffffffffff16036112c95780600260008282546112bd9190611dc4565b9250508190555061139c565b60008060008573ffffffffffffffffffffffffffffffffffffffff1673ffffffffffffffffffffffffffffffffffffffff16815260200190815260200160002054905081811015611355578381836040517fe450d38c00000000000000000000000000000000000000000000000000000000815260040161134c93929190611d8d565b60405180910390fd5b8181036000808673ffffffffffffffffffffffffffffffffffffffff1673ffffffffffffffffffffffffffffffffffffffff16815260200190815260200160002081905550505b600073ffffffffffffffffffffffffffffffffffffffff168273ffffffffffffffffffffffffffffffffffffffff16036113e55780600260008282540392505081905550611432565b806000808473ffffffffffffffffffffffffffffffffffffffff1673ffffffffffffffffffffffffffffffffffffffff168152602001908152602001600020600082825401925050819055505b8173ffffffffffffffffffffffffffffffffffffffff168373ffffffffffffffffffffffffffffffffffffffff167fddf252ad1be2c89b69c2b068fc378daa952ba7f163c4a11628f55a4df523b3ef8360405161148f919061166c565b60405180910390a3505050565b600081519050919050565b600082825260208201905092915050565b60005b838110156114d65780820151818401526020810190506114bb565b60008484015250505050565b6000601f19601f8301169050919050565b60006114fe8261149c565b61150881856114a7565b93506115188185602086016114b8565b611521816114e2565b840191505092915050565b6000602082019050818103600083015261154681846114f3565b905092915050565b600080fd5b600073ffffffffffffffffffffffffffffffffffffffff82169050919050565b600061157e82611553565b9050919050565b61158e81611573565b811461159957600080fd5b50565b6000813590506115ab81611585565b92915050565b6000819050919050565b6115c4816115b1565b81146115cf57600080fd5b50565b6000813590506115e1816115bb565b92915050565b600080604083850312156115fe576115fd61154e565b5b600061160c8582860161159c565b925050602061161d858286016115d2565b9150509250929050565b60008115159050919050565b61163c81611627565b82525050565b60006020820190506116576000830184611633565b92915050565b611666816115b1565b82525050565b6000602082019050611681600083018461165d565b92915050565b6000806000606084860312156116a05761169f61154e565b5b60006116ae8682870161159c565b93505060206116bf8682870161159c565b92505060406116d0868287016115d2565b9150509250925092565b6000602082840312156116f0576116ef61154e565b5b60006116fe848285016115d2565b91505092915050565b600060ff82169050919050565b61171d81611707565b82525050565b60006020820190506117386000830184611714565b92915050565b6000602082840312156117545761175361154e565b5b60006117628482850161159c565b91505092915050565b61177481611573565b82525050565b600060208201905061178f600083018461176b565b92915050565b600080604083850312156117ac576117ab61154e565b5b60006117ba8582860161159c565b92505060206117cb8582860161159c565b9150509250929050565b7f4e487b7100000000000000000000000000000000000000000000000000000000600052602260045260246000fd5b6000600282049050600182168061181c57607f821691505b60208210810361182f5761182e6117d5565b5b50919050565b7f526577617264206d757374206265203e20300000000000000000000000000000600082015250565b600061186b6012836114a7565b915061187682611835565b602082019050919050565b6000602082019050818103600083015261189a8161185e565b9050919050565b7f52617465206d757374206265203e203000000000000000000000000000000000600082015250565b60006118d76010836114a7565b91506118e2826118a1565b602082019050919050565b60006020820190508181036000830152611906816118ca565b9050919050565b600081905092915050565b50565b600061192860008361190d565b915061193382611918565b600082019050919050565b60006119498261191b565b9150819050919050565b7f5769746864726177616c206661696c6564000000000000000000000000000000600082015250565b60006119896011836114a7565b915061199482611953565b602082019050919050565b600060208201905081810360008301526119b88161197c565b9050919050565b7f4d7573742073656e64206e61746976652063757272656e637900000000000000600082015250565b60006119f56019836114a7565b9150611a00826119bf565b602082019050919050565b60006020820190508181036000830152611a24816119e8565b9050919050565b7f4e487b7100000000000000000000000000000000000000000000000000000000600052601160045260246000fd5b6000611a65826115b1565b9150611a70836115b1565b9250828202611a7e816115b1565b91508282048414831517611a9557611a94611a2b565b5b5092915050565b7f4e487b7100000000000000000000000000000000000000000000000000000000600052601260045260246000fd5b6000611ad6826115b1565b9150611ae1836115b1565b925082611af157611af0611a9c565b5b828204905092915050565b7f496e73756666696369656e742066756e647320746f20627579206174206c656160008201527f7374203120425451000000000000000000000000000000000000000000000000602082015250565b6000611b586028836114a7565b9150611b6382611afc565b604082019050919050565b60006020820190508181036000830152611b8781611b4b565b9050919050565b6000604082019050611ba3600083018561165d565b611bb0602083018461165d565b9392505050565b7f4d7573742073656c6c206d6f7265207468616e20300000000000000000000000600082015250565b6000611bed6015836114a7565b9150611bf882611bb7565b602082019050919050565b60006020820190508181036000830152611c1c81611be0565b9050919050565b7f496e73756666696369656e74204254512062616c616e63650000000000000000600082015250565b6000611c596018836114a7565b9150611c6482611c23565b602082019050919050565b60006020820190508181036000830152611c8881611c4c565b9050919050565b7f436f6e74726163742068617320696e73756666696369656e74206e617469766560008201527f2062616c616e6365000000000000000000000000000000000000000000000000602082015250565b6000611ceb6028836114a7565b9150611cf682611c8f565b604082019050919050565b60006020820190508181036000830152611d1a81611cde565b9050919050565b7f4e6174697665207472616e73666572206661696c656400000000000000000000600082015250565b6000611d576016836114a7565b9150611d6282611d21565b602082019050919050565b60006020820190508181036000830152611d8681611d4a565b9050919050565b6000606082019050611da2600083018661176b565b611daf602083018561165d565b611dbc604083018461165d565b949350505050565b6000611dcf826115b1565b9150611dda836115b1565b9250828201905080821115611df257611df1611a2b565b5b9291505056fea26469706673582212208ecdcd735a5ef93f6450089d127b9c609c0d8caba73cb95ae2830851b7e5c7ee64736f6c63430008140033",
  "linkReferences": {},
  "deployedLinkReferences": {}
}